:100000000C9449130C9473130C9473130C94731382
:100010000C9473130C9473130C9473130C94731348
:100020000C9473130C9473130C9452A90C94CFA9D1
:100030000C9473130C9473130C9473130C94731328
:100040000C9473130C94EC7B0C9473130C94731337
:100050000C9473130C9473130C9417940C94B1A810
:100060000C9473130C9473130C9473130C947313F8
:100070000C9473130C9473130C9473130C947313E8
:100080000C9473130C9473130C9473130C947313D8
:100090000C943FA30C94731340A66CA68EA68EA658
:1000A0008EA68EA68EA68EA68EA68EA68EA68EA6B0
:1000B0008EA68EA684A67CA674A68EA68EA68EA6D6
:1000C0008EA68EA68EA68EA666A64CA654A65EA664
:1000D0004E414E494E495459494E46CDCCCC3D0A2D
:1000E000D7233C17B7D13877CC2B329595E6241F10
:1000F000B14F0A000020410000C84200401C4620C9
:10010000BCBE4CCA1B0E5AAEC59D742020506C61FB
:100110006E6E657242756666657242797465733A91
:1001200020002046726565204D656D6F72793A201A
:1001300000436F6D70696C65643A204E6F762032B3
:100140003620323031380A00207C20417574686FC7
:10015000723A20284D65290A00323031382D303866
:100160002D303100204C61737420557064617465CA
:10017000643A2000312E312E390A004D61726C69CB
:100180006E0020536F6674776172652052657365E7
:10019000740A00205761746368646F672052657346
:1001A00065740A002042726F776E206F757420525A
:1001B000657365740A002045787465726E616C2001
:1001C00052657365740A00506F77657255700A0046
:1001D00073746172740A005072696E74657220687B
:1001E000616C7465642E206B696C6C2829206361D6
:1001F0006C6C6564210A004B494C4C45442E200030
:100200004B494C4C2063617573656420627920749E
:100210006F6F206D75636820696E616374697665C0
:100220002074696D65202D2063757272656E74206F
:10023000636F6D6D616E643A200020746F6F206C87
:100240006F6E6720657874727573696F6E20707257
:100250006576656E7465640A0020636F6C64206562
:100260007874727573696F6E2070726576656E74DE
:1002700065640A006F6B00526573656E643A200016
:100280003C3C3C2067636F64655F540A0020206338
:10029000757272656E745F706F736974696F6E3DAD
:1002A00000203A2041465445520A002020637572CE
:1002B00072656E745F706F736974696F6E3D002054
:1002C0003A204245464F52450A003E3E3E20676373
:1002D0006F64655F542800416476616E6365204BEE
:1002E0003D003F4B2076616C7565206F7574206F03
:1002F000662072616E67652028302D3130292E0A04
:10030000003A200050726F6265205A204F66667373
:100310006574003F5A206F7574206F662072616E9D
:10032000676520282D3520746F203230290A00455A
:100330004550524F4D204F4B0A00426564204C659A
:1003400076656C696E6720004661696C656420742F
:100350006F20656E61626C6520426564204C657635
:10036000656C696E670A00426564204C6576656C51
:1003700020436F7272656374696F6E204D61747291
:1003800069783A004E6F2063617365206C69676815
:10039000740A0020643A0020693A0020703A004351
:1003A000290A0061626C656420286D696E2074659D
:1003B0006D702000436F6C6420657874727564659D
:1003C00073206172652000496E76616C69642065F6
:1003D000787472756465720A0020643A0020693A84
:1003E0000020703A0050726F6265205A204F666696
:1003F0007365743A200020466C6F773A2000205ACB
:1004000000205900580020204D61783A2000205AE1
:1004100000205900580020204D696E3A20004F6698
:1004200066004F6E2000536F667420656E647374AF
:100430006F70733A2000546F6F206661722066728D
:100440006F6D207265666572656E636520706F6999
:100450006E740A00205400205200416363656C658D
:10046000726174696F6E3A2050002F2F20003A009D
:100470004361703A00544845524D414C5F50524FD1
:1004800054454354494F4E004155544F5245504FE7
:1004900052545F53445F53544154555300454D45A6
:1004A0005247454E43595F504152534552004341D4
:1004B00053455F4C494748545F4252494748544E60
:1004C00045535300544F47474C455F4C49474854A8
:1004D0005300534F4654574152455F504F57455272
:1004E000004255494C445F50455243454E54004CE0
:1004F0004556454C494E475F44415441005A5F5070
:10050000524F4245004155544F4C4556454C0050C2
:1005100052494E545F4A4F420050524F4752455342
:1005200053004155544F5245504F52545F54454D1E
:100530005000564F4C554D45545249430045455087
:10054000524F4D0053455249414C5F584F4E5F58F2
:100550004F4646004649524D574152455F4E414D28
:10056000453A4D61726C696E20312E312E3920284A
:100570004769746875622920534F555243455F435C
:100580004F44455F55524C3A68747470733A2F2F3C
:100590006769746875622E636F6D2F4D61726C6947
:1005A0006E4669726D776172652F4D61726C696E0E
:1005B0002050524F544F434F4C5F56455253494F72
:1005C0004E3A312E30204D414348494E455F5459F3
:1005D00050453A3344205072696E74657220455814
:1005E0005452554445525F434F554E543A3120556D
:1005F0005549443A63656465326132662D34316130
:10060000322D343734382D396231322D633535632C
:1006100036326633363766660A0020573A0020576E
:100620003A006F6B004D3131332053004B494C4C35
:1006300045442E20004543484F00494E464F004553
:1006400052524F52530044525952554E00434F4D4F
:100650004D554E49434154494F4E004C4556454C2B
:10066000494E47006F66660035063A063F06460665
:100670004D065B0644454255473A0050726F74651B
:10068000637465642050696E0A0000011C1D132FFD
:10069000FFFFFFFF1E1F12FF18FFFFFF2021112485
:1006A000FFFFFFFFFFFFFF0E10FFFFFF22230DFFE5
:1006B000FFFF0E260F2C272569730025696D202565
:1006C0006973002569682025696D202569730025F7
:1006D0006964202569682025696D202569730025D6
:1006E000697920256964202569682025696D2025A0
:1006F0006973005072696E742074696D653A2000E8
:10070000205A3A200020593A200042656420583A85
:1007100020003C3C3C204732390A0020206375729F
:1007200072656E745F706F736974696F6E3D0020DF
:100730003A2047323920636F7272656374656420B2
:1007400058595A0A00202044697363726570616EBB
:1007500063793A0020204D61747269783A005A201A
:1007600066726F6D2050726F62653A00202063756B
:100770007272656E745F706F736974696F6E3D003D
:10078000203A2047323920756E636F727265637448
:1007900065642058595A0A000A0A426564204C656B
:1007A00076656C20436F7272656374696F6E204D5D
:1007B00061747269783A00202063757272656E7494
:1007C0005F706F736974696F6E3D00203A203E2040
:1007D00070726F62696E6720636F6D706C657465AF
:1007E0000A003E20332D706F696E74204C6576656B
:1007F0006C696E670A00202844525952554E2900F0
:10080000473239204175746F20426564204C65760B
:10081000656C696E67003F2856296572626F736563
:10082000206C6576656C20697320696D706C6175EC
:100830007369626C652028302D34292E0A003C3CF7
:100840003C204732390A003E204175746F2D6C659B
:1008500076656C206E6F74206E65656465642C200F
:10086000736B69700A00202063757272656E745F25
:10087000706F736974696F6E3D00203A203E3E3E92
:10088000204732390A00496E76616C6964206578C8
:100890007472756465720A004163746976652045F7
:1008A000787472756465723A200020453A00205AC7
:1008B0003A0020593A00583A002C20002C20003CE5
:1008C0003C3C205A5F534146455F484F4D494E4797
:1008D0000A00202064657374696E6174696F6E3DEF
:1008E00000203A205A5F534146455F484F4D494EDC
:1008F000470A005A5F534146455F484F4D494E47AE
:10090000203E3E3E0A00486F6D65205859206669BA
:100910007273740A003C3C3C207365745F617869B3
:10092000735F69735F61745F686F6D652800202075
:1009300063757272656E745F706F736974696F6EE0
:100940003D00203A200A005D203D20003E20686FD7
:100950006D655F6F66667365745B003E207A7072CA
:100960006F62655F7A6F6666736574203D20002A4A
:100970002A2A205A20484F4D4544205749544820A0
:1009800050524F424520285A5F4D494E5F50524FBA
:1009900042455F555345535F5A5F4D494E5F454E43
:1009A0004453544F505F50494E29202A2A2A0A00A6
:1009B0003E3E3E207365745F617869735F69735F63
:1009C00061745F686F6D6528003C3C3C20646F5F1C
:1009D000686F6D696E675F6D6F76652800290A0024
:1009E0005B002C20002C20003E3E3E20646F5F68A0
:1009F0006F6D696E675F6D6F766528005761726E07
:100A0000696E673A20486F6D696E672042756D7038
:100A10002044697669736F72203C20310A0002021B
:100A2000043C3C3C20686F6D656178697328002048
:100A30002063757272656E745F706F736974696F2D
:100A40006E3D00203A203E204146544552207365B9
:100A5000745F617869735F69735F61745F686F6DFC
:100A6000650A00486F6D65203220536C6F773A0A33
:100A7000004D6F766520417761793A0A00486F6DC5
:100A800065203120466173743A0A003E3E3E20687C
:100A90006F6D656178697328003C3C3C20473238B3
:100AA0000A005261697365205A20286265666F7278
:100AB0006520686F6D696E672920746F20003E2085
:100AC000656E6473746F70732E656E61626C6528F9
:100AD00074727565290A003C3C3C204732380A0094
:100AE0003E20686F6D696E67206E6F74206E65655D
:100AF0006465642C20736B69700A003E3E3E20479B
:100B000032380A00202864697361626C6564290ABE
:100B100000205A0020590041424C2041646A7573FC
:100B2000746D656E742058002028656E61626C6576
:100B300064290A0033504F494E54004175746F20A8
:100B4000426564204C6576656C696E673A200020CA
:100B50004E6F7A7A6C65290A0020262053616D65F4
:100B6000205A2061730020262041626F76650020A4
:100B7000262042656C6F77002D43656E74657200A8
:100B80002028526967687400205A3A0020593A00B8
:100B900050726F6265204F666673657420583A0024
:100BA0004649585F4D4F554E5445445F50524F4251
:100BB000450A0050726F62653A20004361727465A5
:100BC0007369616E0A004D616368696E65205479CE
:100BD00070653A2000627573793A207061757365AB
:100BE0006420666F7220696E7075740A0062757396
:100BF000793A2070617573656420666F7220757331
:100C000065720A00627573793A2070726F6365735A
:100C100073696E670A0072657365745F6265645F0D
:100C20006C6576656C0A00202063757272656E745F
:100C30005F706F736974696F6E3D00203A203C3CB1
:100C40003C20646F5F70726F62655F6D6F76650ADE
:100C500000202063757272656E745F706F736974C3
:100C6000696F6E3D00203A203E3E3E20646F5F700B
:100C7000726F62655F6D6F76650A00202063757222
:100C800072656E745F706F736974696F6E3D00207A
:100C90003A203C3C3C2072756E5F7A5F70726F62E6
:100CA000650A002044697363726570616E63793A06
:100CB00000326E642050726F6265205A3A00202024
:100CC00063757272656E745F706F736974696F6E4D
:100CD0003D00203A203C3C3C2072756E5F7A5F708C
:100CE000726F62650A00534C4F572050726F6265F5
:100CF000206661696C210A003173742050726F6242
:100D000065205A3A00202063757272656E745F70B8
:100D10006F736974696F6E3D00203A203C3C3C2043
:100D200072756E5F7A5F70726F62650A004641533A
:100D3000542050726F6265206661696C210A002040
:100D40002063757272656E745F706F736974696F1A
:100D50006E3D00203A203E3E3E2072756E5F7A5F07
:100D600070726F62650A003C3C3C2070726F626575
:100D70005F70740A0050726F62696E672066616905
:100D80006C65640A00205A3A200020593A2000423B
:100D9000656420583A2000202063757272656E7475
:100DA0005F706F736974696F6E3D00203A200A00AE
:100DB0005F72656C6174697665290A002C20002CCD
:100DC00020002C20002C20003E3E3E2070726F62DE
:100DD000655F70742800646F5F70726F62655F7228
:100DE0006169736528006465706C6F793A20002032
:100DF0002063757272656E745F706F736974696F6A
:100E00006E3D00203A207365745F70726F62655F9B
:100E10006465706C6F7965640A002066697273742A
:100E20000A005A0059005800486F6D6520002020C4
:100E300063757272656E745F706F736974696F6EDB
:100E40003D00203A20636C65616E5F75705F61667E
:100E50007465725F656E6473746F705F6F725F70DC
:100E6000726F62655F6D6F76650A00202063757230
:100E700072656E745F706F736974696F6E3D002088
:100E80003A2073657475705F666F725F656E647328
:100E9000746F705F6F725F70726F62655F6D6F7697
:100EA000650A003C3C3C20646F5F626C6F636B6959
:100EB0006E675F6D6F76655F746F0A003E3E3E2021
:100EC000646F5F626C6F636B696E675F6D6F766591
:100ED0005F746F000A20736F66745F656E6473746D
:100EE0006F705F6D6178203D20000A20736F66741B
:100EF0005F656E6473746F705F6D696E203D200076
:100F00000A20706F736974696F6E5F7368696674C5
:100F1000203D200020617869733A0A20686F6D6572
:100F20005F6F6666736574203D2000466F72200017
:100F300020496E76616C69642065787472756465A9
:100F40007220004B494C4C45442E20005072696E73
:100F50007465722073746F707065642064756520A9
:100F6000746F206572726F72732E204669782074D8
:100F70006865206572726F7220616E64207573659A
:100F8000204D39393920746F207265737461727421
:100F90002E202854656D70657261747572652069C4
:100FA000732072657365742E2053657420697420F4
:100FB00061667465722072657374617274696E67BC
:100FC000290A004E6F20436865636B73756D207747
:100FD000697468206C696E65206E756D6265722C2F
:100FE000204C617374204C696E653A20006368651B
:100FF000636B73756D206D69736D617463682C200C
:101000004C617374204C696E653A20004C696E65C2
:10101000204E756D626572206973206E6F74204C6E
:10102000617374204C696E65204E756D6265722B1C
:10103000312C204C617374204C696E653A20004D50
:1010400031313000656E7175657565696E67202296
:1010500000202063757272656E745F706F736974BF
:10106000696F6E3D00203A2073796E635F706C612A
:101070006E5F706F736974696F6E0A002C20002CAC
:101080002000FF01FF0000A0400000A04000000081
:101090004033334B4333334B4300007E4300000067
:1010A0000033334B430000000033334B4333334BA7
:1010B0004300007E4300000000000000000000002C
:1010C000000000484200004842000080400000004C
:1010D000003A0A0020286D6D290020204D3930305B
:1010E000204B004C696E65617220416476616E63CD
:1010F000653A0A0020204D383531205A005A2D50CB
:10110000726F6265204F666673657400204400202C
:10111000490020204D333034205000204400204925
:101120000020204D33303120500050494420736559
:101130007474696E67733A0A0020204D343230208F
:1011400053004175746F20426564204C6576656C70
:10115000696E673A0A00205A0020590020204D325B
:101160003036205800486F6D65206F666673657471
:101170003A0A00204500205A00205900205800203B
:10118000540020530020204D32303520510020459E
:101190003C6D61785F655F6A65726B3E0020583C0C
:1011A0006D61785F785F6A65726B3E20593C6D6156
:1011B000785F795F6A65726B3E205A3C6D61785F3B
:1011C0007A5F6A65726B3E00416476616E63656446
:1011D0003A20513C6D696E5F7365676D656E745F33
:1011E00074696D655F75733E20533C6D696E5F6613
:1011F000656564726174653E20543C6D696E5F7410
:10120000726176656C5F66656564726174653E00E7
:1012100020540020520020204D3230342050004114
:101220006363656C65726174696F6E2028756E69A1
:1012300074732F7332293A20503C7072696E745F58
:10124000616363656C3E20523C72657472616374C5
:101250005F616363656C3E20543C74726176656CBB
:101260005F616363656C3E0A00204500205A0020E0
:10127000590020204D3230312058004D6178696D81
:10128000756D20416363656C65726174696F6E2072
:1012900028756E6974732F7332293A0A002045004D
:1012A000205A0020590020204D3230332058004D64
:1012B0006178696D756D20666565647261746573CA
:1012C0002028756E6974732F73293A0A002045002F
:1012D000205A0020590020204D39322058005374E4
:1012E0006570732070657220756E69743A0A00200B
:1012F000204D3230302044300A0020204D32303032
:101300002044002044697361626C65640A00466988
:101310006C616D656E742073657474696E67733A81
:10132000002020473231202020203B004861726499
:10133000636F6465642044656661756C74205365F1
:101340007474696E6773204C6F616465640A00DCB5
:10135000050000DC050000DC05000010270000008F
:1013600000FA420000FA42000070410000C841004B
:1013700000A0420000A0420000C8430000E543294D
:101380000A002062797465733B2063726320002039
:1013900073746F7265642073657474696E6773200B
:1013A000726574726965766564202800202863611F
:1013B0006C63756C6174656429210A0020213D20ED
:1013C00000454550524F4D20435243206D69736D87
:1013D00061746368202D202873746F7265642920FE
:1013E000002053697A653A2000496E6465783A2096
:1013F00000204D61726C696E3D563535290A002812
:10140000454550524F4D3D00454550524F4D207679
:10141000657273696F6E206D69736D6174636820A6
:1014200000290A002062797465733B20637263208F
:101430000053657474696E67732053746F726564CA
:10144000202800454550524F4D20646174617369F6
:101450007A65206572726F722E0A004572726F7221
:101460002077726974696E6720746F204545505209
:101470004F4D210A006F70656E0054524947474531
:10148000524544003A20007A5F6D696E00795F6DC5
:10149000617800785F6D696E005265706F72746973
:1014A0006E6720656E6473746F70207374617475F9
:1014B000730A00205A3A0020593A0020583A006531
:1014C0006E6473746F7073206869743A2000486F9B
:1014D0006D696E67206661696C656400556E6B6E40
:1014E0006F776E20636F6D6D616E643A202200200D
:1014F000746F6F206C6F6E67206578747275736996
:101500006F6E2070726576656E7465640A00206384
:101510006F6C6420657874727573696F6E20707279
:101520006576656E7465640A00FFFDFCFAF8F6F4F2
:10153000F2F0EEECEAE9E7E5E3E1E0DEDCDAD9D768
:10154000D5D4D2D0CFCDCBCAC8C7C5C3C2C0BFBD0A
:10155000BCBAB9B7B6B4B3B2B0AFADACAAA9A8A67D
:10156000A5A4A2A1A09E9D9C9A99989795949392C8
:10157000908F8E8D8B8A8988878684838281807FF5
:101580007E7D7B7A797877767574737271706F6E01
:101590006D6C6B6A696867666564636261605F5EF3
:1015A0005D5C5B5A595858575655545352515050D8
:1015B0004F4E4D4C4B4A4A494847464645444342A4
:1015C0004241403F3E3E3D3C3B3B3A39383837365E
:1015D0003535343332323130302F2E2E2D2C2B2B0B
:1015E0002A292928272726252524232322212120AB
:1015F000201F1E1E1D1C1C1B1B1A1919181817163C
:1016000016151514131312121111100F0F0E0E0DC3
:101610000D0C0C0B0A0A0909080807070606050540
:1016200004040303020201000000000001000000A6
:101630000100008000555555000000400033333351
:1016400000AAAA2A004992240000002000C7711CA9
:101650000099991900D1451700555515003BB11354
:10166000002449120011111100000010000F0F0F8B
:1016700000E3380E0043790D00CCCC0C00C3300CD5
:1016800000E8A20B0064210B00AAAA0A00703D0A20
:10169000009DD80900427B090092240900DCD30890
:1016A00000888808001042080000000800F0C10708
:1016B000008787070075500700711C07003EEB0686
:1016C00000A1BC06006990060066660600703E0632
:1016D000006118060017F4050074D105005BB00521
:1016E00000B2900500627205005555050078390575
:1016F00000B81E0500050505004EEC040087D40463
:1017000000A1BD040090A7040049920400C17D041B
:1017100000EE690400C7560400444404005C32042F
:10172000000821040041100400000004003FF00301
:1017300000F8E0030026D20300C3C30300CCB503C6
:10174000003AA803000A9B0300388E0300C08103FF
:10175000009F750300D0690300505E03001D530312
:101760000034480300913D0300333303001629037E
:1017700000381F030097150300300C030003030318
:10178000000BFA020049F10200BAE802005CE00234
:10179000002DD802002DD0020059C80200B0C002AE
:1017A0000031B90200DAB10200AAAA0200A0A30225
:1017B00000BC9C0200FA9502005C8F0200DF8802E8
:1017C0000082820200457C02002776020027700218
:1017D00000436A02007C640200D05E02003F5902AE
:1017E00000C853020046696C616D656E74207573A4
:1017F00065643A200053746174733A20002C204CC5
:101800006F6E67657374206A6F623A2000546F745C
:10181000616C2074696D653A200053746174733A89
:1018200020002C204661696C65643A20002C20461B
:10183000696E69736865643A20005072696E7473EA
:101840003A200053746174733A20006563686F3AFC
:10185000004572726F723A00205A3A0020593A00DD
:1018600020436F756E7420583A00232C0000B82274
:101870000000561800003A0F0000B8080000B1043C
:101880000000710200003E01000024F4D43050C377
:101890008E20C2A24017828B7011127A910D816C3A
:1018A000D90AA861E108C7586607615143061E4B73
:1018B0005D05C145A7041A411104093D980371391A
:1018C00031034036DB0265339102D4305402802E5E
:1018D0001D02632CEE01752AC501B028A001102756
:1018E00081018F2564012B244B01E0223401AC21BE
:1018F0001F018D200D01801FFC00841EED00971D2F
:10190000DF00B81CD200E61BC600201BBC00641A16
:10191000B200B219A8000A19A0006A189900D117DC
:10192000910040178B00B516840031167E00B31568
:1019300079003A157300C7146F0058146A00EE134B
:1019400066008813630025135E00C7125B006C12EB
:10195000570015125400C111510070114F00211190
:101960004B00D61049008D1047004610440002106D
:101970004200C00F4000800F3E00420F3C00060FA7
:101980003B00CB0E3800930E37005C0E3500270E5F
:101990003400F30D3200C10D3100900D3000600DA8
:1019A0002E00320D2D00050D2C00D90C2B00AE0C95
:1019B0002900850C29005C0C2700350C27000E0C33
:1019C0002600E80B2400C40B2400A00B23007D0B91
:1019D00023005A0B2100390B2100180B2000F80AB4
:1019E0001F00D90A1E00BB0A1E009D0A1D00800AA6
:1019F0001D00630A1C00470A1B002C0A1B00110A69
:101A00001A00F7091A00DD091900C4091900AB0909
:101A10001900920917007B091800630917004C0987
:101A2000160036091600200916000A091500F508E7
:101A30001500E0081400CC081400B8081400A4082D
:101A40001400900813007D0812006B08130058085A
:101A50001200460812003408110023081100120871
:101A6000110001081100F0071000E0071000D00776
:101A70001000C0071000B0070F00A1071000910769
:101A80000E0083070F0074070F0065070E0057074D
:101A90000E0049070E003B070D002E070E00200721
:101AA0000D0013070D0006070D00F9060C00ED06EA
:101AB0000D00E0060C00D4060C00C8060C00BC06A5
:101AC0000C00B0060C00A4060B0099060C008D0655
:101AD0000B0082060B0077060B006C060B006106FC
:101AE0000A0057060B004C060A0042060A00380698
:101AF0000A002E060A0024060A001A060A0010062A
:101B0000090007060A00FD050900F4050900EB05B8
:101B10000900E2050900D9050900D0050900C7053B
:101B20000900BE050900B5050800AD050800A505BA
:101B300009009C050800940508008C050800840530
:101B400008007C050800740508006C0507006505A1
:101B500008005D050700560508004E05070047050B
:101B600007004005080038050700310507002A0571
:101B70000700230507001C050600160507000F05D2
:101B800007000805060002050700FB040600F5042F
:101B90000700EE040600E8040600E2040700DB0488
:101BA0000600D5040600CF040600C9040600C304DD
:101BB0000600BD040600B7040600B1040500AC042D
:101BC0000600A6040600A00405009B040600950478
:101BD0000500900406008A040500850405008004C1
:101BE00006007A04050075040500700405006B0406
:101BF000050066040500610405005C040500570447
:101C00000500520405004D04050048040500430486
:101C100005003E0404003A040500350405003004C4
:101C200004002C04050027040400230405001E04FE
:101C300004001A04040016040500110404000D0435
:101C40000400090405000404040000040400FC036B
:101C50000400F8030400F4030400F0030400EC03A0
:101C60000400E8030400E4030400E0030400DC03D0
:101C70000400D8030400D4030400D0030400CC0300
:101C80000400C8030300C503030024F404D9201B87
:101C9000C40C5C0E9804C4095F0265077101F40569
:101CA000F900FB04B30048048700C103690058032E
:101CB000550003034500BE023A008402310053027E
:101CC0002A002902250004022000E4011C00C801AA
:101CD0001900AF011700980114008401130071016D
:101CE00010006101100051010E0043010D0036018A
:101CF0000B002B010B0020010B00150109000C014A
:101D0000090003010800FB000800F3000800EB00D5
:101D10000700E4000600DE000600D8000600D2003E
:101D20000600CC000500C7000500C2000500BD008C
:101D30000400B9000400B5000400B1000400AD00C7
:101D40000400A9000400A5000300A20003009F00F6
:101D500004009B000300980003009500020093001C
:101D60000300900003008D0002008B000300880038
:101D700002008600020084000300810002007F0050
:101D800002007D0002007B00020079000200770063
:101D90000100760002007400020072000100710070
:101DA00002006F0002006D0001006C0002006A007A
:101DB0000100690002006700010066000100650083
:101DC0000100640002006200010061000100600087
:101DD00001005F0002005D0001005C0001005B008B
:101DE00001005A000100590001005800010057008D
:101DF000010056000100550001005400010053008D
:101E00000000530001005200010051000100500089
:101E100001004F0001004E0000004E0001004D0087
:101E200001004C0001004B0000004B0001004A0083
:101E3000010049000100480000004800010047007F
:101E4000010046000000460001004500000045007A
:101E50000100440001004300000043000100420073
:101E6000000042000100410000004100010040006C
:101E700001003F0000003F0001003E0000003E0066
:101E800001003D0000003D0001003C0000003C005E
:101E900000003C0001003B0000003B0001003A0054
:101EA00000003A000100390000003900010038004C
:101EB0000000380000003800010037000000370043
:101EC0000100360000003600000036000100350039
:101ED000000035000000350001003400000034002F
:101EE0000000340001003300000033000000330024
:101EF0000100320000003200000032000100310019
:101F0000000031000000310001003000000030000E
:101F10000000300001002F0000002F0000002F0003
:101F200000002F0001002E0000002E0000002E00F7
:101F300001002D0000002D0000002D0000002D00EC
:101F400001002C0000002C0000002C0000002C00E0
:101F500001002B0000002B0000002B0000002B00D4
:101F600001002A0000002A0000002A0000002A00C8
:101F700001002900000029000000290000002900BC
:101F800000002900010028000000280000002800AF
:101F900000002800000028000100270000002700A2
:101FA0000000270000002700000027000100260095
:101FB0000000260000002600000026000000260089
:101FC000010025000000250000002500000025007C
:101FD000000025000000250001002400000024006E
:101FE0000000240000002400000024000100230061
:101FF0000000230000002300000023000000230055
:102000000000230000002300010022000000220045
:102010000000220000002200000022000000220038
:10202000010021000000210000002100000021002B
:10203000000021000000210000002100010020001C
:102040000000200000002000000020000000200010
:1020500000002000000020000000200001001F0000
:1020600000001F0000001F0000001F0000001F00F4
:1020700000001F0000001F0001001E0000001E00E5
:1020800000001E0000001E000000290A0020280099
:102090002920453A0020280029205A3A002028000B
:1020A0002920593A0020280020583A0053746570BE
:1020B0007065722063757272656E742076616C75DE
:1020C000657320696E20252028416D7073293A0AB6
:1020D000002042403A0020403A00202F005468651A
:1020E000726D616C2052756E6177617900453120A7
:1020F000544845524D414C2052554E41574159008C
:1021000042454420544845524D414C2052554E4181
:10211000574159004B494C4C45442E2000202D205E
:10212000496E76616C696420657874727564657255
:10213000206E756D62657220210A004865617469C0
:102140006E67206661696C6564004265642068653D
:102150006174696E67206661696C656400486561D9
:1021600074696E67206661696C656400453120485A
:10217000656174696E67206661696C6564004D49CC
:102180004E54454D502074726967676572656400EE
:102190004531204572723A204D494E54454D50000C
:1021A0004572723A204D494E54454D5020424544A7
:1021B000004D415854454D502074726967676572EF
:1021C0006564004531204572723A204D41585445AE
:1021D0004D50004572723A204D415854454D5020A3
:1021E000424544006265640A002C2073797374656B
:1021F0006D2073746F70706564212048656174652B
:10220000725F49443A20002CFFFFFFFFFF000101ED
:102210000101014B64200023646566696E652044FA
:10222000454641554C545F004B6920002364656668
:10223000696E652044454641554C545F004B702003
:102240000023646566696E652044454641554C54DB
:102250005F00504944204175746F74756E65206647
:10226000696E6973686564212050757420746865AF
:10227000206C617374204B702C204B6920616E645C
:10228000204B6420636F6E7374616E74732066728A
:102290006F6D2062656C6F7720696E746F20436F7D
:1022A0006E66696775726174696F6E2E680A005098
:1022B0004944204175746F74756E65206661696C60
:1022C0006564212074696D656F75740A00546865D2
:1022D000726D616C2052756E6177617900453120B5
:1022E000544845524D414C2052554E41574159009A
:1022F00042454420544845524D414C2052554E4190
:102300005741590048656174696E67206661696C60
:1023100065640045312048656174696E67206661B7
:10232000696C6564004265642068656174696E6704
:10233000206661696C656400504944204175746F82
:1023400074756E65206661696C6564212054656DE5
:10235000706572617475726520746F6F206869674B
:10236000680A00204B643A2000204B693A20002084
:102370004B703A20000A20436C61737369632050EC
:102380004944200A002054753A2000204B753A2019
:1023900000206D61783A2000206D696E3A2000209F
:1023A000643A200020626961733A20005049442059
:1023B0004175746F74756E652073746172740A0070
:1023C000504944204175746F74756E65206661696B
:1023D0006C6564212042616420657874727564655F
:1023E00072206E756D6265720A001000AD033001D7
:1023F0006A0150022B0170030A019004F500B00538
:10240000E500D006D800F007CE001009C500300A5C
:10241000BE00500BB700700CB100900DAB00B00EB9
:10242000A600D00FA200F0109D00101299003013EA
:1024300095005014920070158E0090168B00B01706
:102440008700D0188400F0198100101B7E00301C1A
:102450007B00501D7900701E7600901F7300B02025
:102460007000D0216E00F0226B001024690030252E
:102470006600502663007027610090285E00B02936
:102480005C00D02A5900F02B5600102D5400302E3D
:102490005100502F4E0070304B0090314800B03248
:1024A0004500D0334200F0343E0010363B00303758
:1024B00037005038330070392E00903A2900B03B75
:1024C0002300D03C1B00F03D1100103F0100F03F05
:1024D00000001000C90210012C014001220170010E
:1024E0001801B0010E01F00104015002FA00B0021F
:1024F000F0003003E600D003DC009004D200700549
:10250000C800A006BE000008B400B009AA00D00BA5
:10251000A000600E960060118C000015820020194A
:102520007800C01D6E00A0226400B0275A00902CD5
:10253000500000314600E0343C0010383200903A40
:102540002800603C1E00A03D1400803E0A00203F91
:1025500000000129022904290829102920294029DD
:102560008029012C022C012602260426082610268A
:10257000202640268026402C802C01230223042381
:10258000082310232023402380230120022004203D
:1025900008201020202040208020102C202C012FEB
:1025A000022F042F082F102F202F402F802F7EFE68
:1025B0007EFD7EFB7EF77EEF7EDF7EBF7E7F0001AD
:1025C00000006F2612000200002C264300030000CA
:1025D000282604010309040E261802030904F6251F
:1025E0001603030904E8250C0C0331003200330004
:1025F000340035000000160355005300420020004F
:10260000530065007200690061006C00000018034F
:102610005400650065006E00730079006400750069
:1026200069006E006F000000040309040902430002
:10263000020100C032090400000102020100052469
:1026400000100105240100010424020605240600EF
:10265000010705820308004009040100020A000086
:102660000007050302400000070584024000001235
:1026700001000202000020C016830472020102035E
:10268000010001C10201803601813600B6775DA2EA
:1026900015AD11241FBECFEFD0E2DEBFCDBF12E0DB
:1026A000A0E0B1E0E2EDF0E701E00BBF02C007906F
:1026B0000D92A634B107D9F72EE0A6E4B2E001C02E
:1026C0001D92AC39B207E1F713E1C9E4D3E104C0CC
:1026D0002197FE010E948AADC634D107C9F70E9436
:1026E000C5A50C9467B80C9400004F925F926F924E
:1026F0007F928F929F92AF92BF92CF92DF92EF9292
:10270000FF92CF934B015C0169017A0120E030E038
:1027100040EA51E40E94ACAD2B013C012FE632E1CE
:1027200043E85AEB0E94C6AF87FD48C025E733E374
:102730004BE453E4C301B2010E9424AE18160CF41A
:102740003DC02FE632E143E85AEBC701B6010E94D3
:10275000C6AF87FD33C025E733E34BE453E4C7013D
:10276000B6010E9424AE18164CF124EF3DEF4FE95C
:1027700051E4C501B4010E94C6AF87FD1FC025E723
:1027800033E341E453E4C501B4010E9424AE1816BA
:10279000ACF027EE3BEF4FE151E4C701B6010E94D8
:1027A000C6AF87FD0BC0C1E025E733E341E453E446
:1027B000C701B6010E9424AE18160CF4C0E08C2F9D
:1027C000CF91FF90EF90DF90CF90BF90AF909F9010
:1027D0008F907F906F905F904F900895FB010190D4
:1027E0000020E9F73197AF01461B570BDC01ED9153
:1027F000FC910280F381E02D09940C94D5A4CF9331
:10280000DF931F92CDB7DEB76983DC01ED91FC91B8
:102810000280F381E02D41E050E0BE016F5F7F4F09
:1028200009950F90DF91CF910895FF920F931F9319
:10283000CF93DF93F82E092F162FE0E7F4E0649191
:10284000EF012196662329F080E99EE0D8DFFE01A2
:10285000F6CFEF2DF02F6491EF012196662329F03A
:1028600080E99EE0CCDFFE01F6CFEEE6F4E0649175
:10287000EF012196662329F080E99EE0C0DFFE018A
:10288000F6CF412F50E060E070E080E99EE00E94CA
:10289000C8A46AE080E99EE0DF91CF911F910F917B
:1028A000FF90ADCF0FB6F8948091850E9091860E73
:1028B000A091870EB091880E0FBE8093C5029093B1
:1028C000C602A093C702B093C80208954F925F92C8
:1028D0006F927F92AF92BF92CF92DF92EF92FF9270
:1028E000CF93DF93EB01FC01608171818281938141
:1028F0002CE3C22ED12CE12CF12CA70196010E94D1
:102900004CADB62EA72ECA01B901A70196010E94AF
:102910004CAD6B017C01CA01B90128E130E040E017
:1029200050E00E944CAD2B013C01C9016DE671E005
:102930000E9438AD61157105D9F0AF92BF92DF9258
:10294000CF925F924F929F938F937F936F938FED70
:1029500096E09F938F93DF93CF930E944CB58DB7F2
:102960009EB70E960FB6F8949EBF0FBE8DBF61C086
:102970000097C9F0AF92BF92DF92CF925F924F92D1
:102980009F938F938FEC96E09F938F93DF93CF93DA
:102990000E944CB5EDB7FEB73C960FB6F894FEBF5B
:1029A0000FBEEDBF46C04114510461047104B9F07B
:1029B000AF92BF92DF92CF925F924F9283EC96E0FC
:1029C0009F938F93DF93CF930E944CB58DB79EB7A3
:1029D0000A960FB6F8949EBF0FBE8DBF2AC0C114D1
:1029E000D104E104F104A9F0AF92BF92DF92CF923B
:1029F0008BEB96E09F938F93DF93CF930E944CB520
:102A0000EDB7FEB738960FB6F894FEBF0FBEEDBF18
:102A100010C0AF92BF9287EB96E09F938F93DF93A6
:102A2000CF930E944CB50F900F900F900F900F9086
:102A30000F90DF91CF91FF90EF90DF90CF90BF90FC
:102A4000AF907F906F905F904F90089581548A313E
:102A500008F040C0A82FB0E04091E5045091E60492
:102A60006091E7047091E80404C0769567955795E6
:102A700047958A95D2F740FF2DC0E091F004F09180
:102A8000F104A553BB4F8C918823E1F0E80FF11DB1
:102A9000808190ED980F9A3080F08E3229F48181F8
:102AA00080538A3078F409C08D3211F08B3251F4A2
:102AB000818190ED980F9A3018F49E2F8F2F04C0CB
:102AC0008E3251F090E080E09093EC048093ED041E
:102AD00081E0089580E00895828180538A3090F7E4
:102AE000ECCFB4DF882341F081E02091EC043091F9
:102AF000ED04232B09F480E008950F931F93CF93E7
:102B00008091EC049091ED04009711F1FC018F018C
:102B1000C1912C2F2F7DA9F0C53411F0C536B9F71E
:102B2000F801108260E070E08091EC049091ED0477
:102B30000E94FFB0F801C083562F472F382F292F4E
:102B40000BC060E070E0CF911F910F910C94FFB02B
:102B500050E040E030E020E0652F742F832F922F6B
:102B6000CF911F910F9108958091EC049091ED0405
:102B7000009731F04AE050E060E070E00C9465B2FC
:102B800060E070E0CB0108958091EC049091ED0439
:102B9000009731F04AE050E060E070E00C948DB3B3
:102BA00060E070E0CB010895DFDF97FD0AC0DCDF55
:102BB0006F3F71058105910509F02CF4D5DF862F53
:102BC000089580E008958FEF08958091EC0490912E
:102BD000ED04892B31F0E8DF91E0811103C090E032
:102BE00001C091E0892F08954F925F926F927F927A
:102BF0008F929F92AF92BF92CF92DF92EF92FF920D
:102C00000F931F93CF93DF9300D000D0CDB7DEB7E3
:102C10004B0129833A834B835C8327013801FC01F4
:102C200064918C010F5F1F4F662329F080E99EE0BD
:102C3000E6DDC801F4CF68E280E99EE0E0DD22E055
:102C400030E049815A816B817C8180E99EE0D5DD4D
:102C5000B301A2018FE790E10E94F07AB601A501CD
:102C60008CE790E10E94F07A69E280E99EE0C7DD9E
:102C70008114910469F0F40164914F018FEF881A77
:102C8000980A6623E9F080E99EE0B9DDF401F4CF0B
:102C90006AE080E99EE00F900F900F900F90DF9117
:102CA000CF911F910F91FF90EF90DF90CF90BF9049
:102CB000AF909F908F907F906F905F904F909FCD3F
:102CC0000F900F900F900F90DF91CF911F910F9168
:102CD000FF90EF90DF90CF90BF90AF909F908F903C
:102CE0007F906F905F904F900895AF92BF92CF9278
:102CF000DF92EF92FF920F931F93FA01A084B184A9
:102D0000C284D384E480F5800681178120813181DB
:102D10004281538169DF1F910F91FF90EF90DF9007
:102D2000CF90BF90AF9008950F931F93CF93DF93F1
:102D3000CDB7DEB72C970FB6F894DEBF0FBECDBF70
:102D40008091B90485FF07C049EA54E065E670E167
:102D500081E590E1CADF8091B1049091B204A09125
:102D6000B304B091B4044091AD045091AE046091AD
:102D7000AF047091B0040091A9041091AA042091AD
:102D8000AB043091AC0409871A872B873C874D83AD
:102D90005E836F83788789839A83AB83BC83AE011C
:102DA0004F5F5F4FBE016B5F7F4FCE0109960E9460
:102DB000F26625EB34E0AE014F5F5F4FBE016B5F03
:102DC0007F4FCE0109960E9465752C960FB6F89438
:102DD000DEBF0FBECDBFDF91CF911F910F91089540
:102DE0002F923F924F925F926F927F928F929F921B
:102DF000AF92BF92CF92DF92EF92FF920F931F9309
:102E0000CF93DF93CDB7DEB764970FB6F894DEBFEC
:102E10000FBECDBF1A012B01702E812E690190913A
:102E2000B904A82EB12C95FF4EC0F501EE5EFD4F02
:102E3000608188EE99E00E949B7AB201A10185EE43
:102E400099E00E94F07AE2EEF9E064918F010F5F61
:102E50001F4F662329F080E99EE0D1DCF801F5CF11
:102E600020E030E0A901672D782DC6010E9424AE34
:102E7000882349F022E030E0472D582DB60180E943
:102E80009EE0BBDC13C0F501EE0FFF1FEE0FFF1F2E
:102E9000EF53FF4E459155916591749180EE99E005
:102EA0000E94F07A6DE580E99EE0A9DCEDEDF9E0A5
:102EB00064918F010F5F1F4F662329F080E99EE028
:102EC0009EDCF801F5CFF501EE57FF4EE491992411
:102ED00093941E160CF4912C6624639420E030E049
:102EE000A901C201B1010E94C6AF18160CF0612CF5
:102EF0008501000F111F000F111FC80187559B4F3F
:102F00007C01FC0110821182128213820DDFF70115
:102F10002082318242825382E090CD0220E030E074
:102F2000A901672D782DC6010E9424AE811108C029
:102F3000F801EF53FF4E85919591A591B49103C08F
:102F4000872D982DD601898B9A8BAB8BBC8B80916A
:102F5000B1049091B204A091B304B091B404409133
:102F6000AD045091AE046091AF047091B004009133
:102F7000A9041091AA042091AB043091AC040D87F0
:102F80001E872F87388B49875A876B877C878D836D
:102F90009E83AF83B88719821A821B821C82AE017E
:102FA0004B5F5F4FBE01675F7F4FCE010D960E9462
:102FB000F266CE0101966C018E010F5E1F4F25EB6C
:102FC00034E0AE014B5F5F4FBE01675F7F4F0C96F1
:102FD0000E9483740E94736896100E94AE5B809179
:102FE000B90485FF10C0F501EE5EFD4F608189ECEC
:102FF00099E00E949B7A69E280E99EE000DC6AE049
:1030000080E99EE0FCDB64960FB6F894DEBF0FBE4D
:10301000CDBFDF91CF911F910F91FF90EF90DF9087
:10302000CF90BF90AF909F908F907F906F905F9068
:103030004F903F902F90089565EB74E083E00C94DF
:103040008C76CF93DF9300D0CDB7DEB72091820E80
:103050003091830ECE0101962115310529F48C594A
:103060009E409A83898304C0821B930B9A83898331
:1030700089819A810F900F90DF91CF910895FF92EF
:103080000F931F93CF93DF93FC0120812B3319F112
:10309000D0918E04D430F8F4F62EBC01C0918C048B
:1030A0000C2F10E0F0E6CF9FC0011124845F9C4FED
:1030B0000E942CB5F801E455FD4FF082CF5FC4307B
:1030C00018F4C0938C0402C010928C04DF5FD0937C
:1030D0008E0481E001C080E0DF91CF911F910F91BC
:1030E000FF900895EF92FF921F93CF93DF937C019F
:1030F00060E0C5DF182F8823C9F0EBE4F8E16491A4
:10310000EF012196662329F080E99EE078DBFE013D
:10311000F6CFB70184E490E10E94737A62E280E91D
:103120009EE06DDB6AE080E99EE069DB812FDF9144
:10313000CF911F91FF90EF900895DF92EF92FF9251
:103140000F931F93CF93DF93CDB7DEB76E970FB674
:10315000F894DEBF0FBECDBF60910A0370910B03E0
:103160006115710541F14DE150E0CE0101967C0100
:103170000E94E2B41E8EF7018F010E191F09D19033
:10318000DD2019F09AE0D912F7CFF701E00FF11F17
:103190001082C701A7DF882371F0DD20A9F00F5F3F
:1031A0001F4F80910A0390910B03080F191F109372
:1031B0000B0300930A0381E020910A0330910B0373
:1031C000232B29F480E003C000E010E0F0CF6E96DE
:1031D0000FB6F894DEBF0FBECDBFDF91CF911F9128
:1031E0000F91FF90EF90DF900895EF92FF920F9371
:1031F0001F93CF93DF937C0184E573DCD82F882362
:1032000069F1D2DCC82F18162CF5EBE4F8E16491D3
:103210008F010F5F1F4F662329F080E99EE0EFDAF0
:10322000F801F5CF6DE480E99EE0E9DAA70160E0FE
:1032300070E020E080E99EE00E946CA46C2FCC0F2F
:10324000770B80E39FE00E94B37A6AE080E99EE01A
:10325000D6DA08C08093C002D0E004C08091CD02CD
:103260008093C0028D2FDF91CF911F910F91FF901E
:10327000EF900895AF92BF92CF92DF92EF92FF92BC
:103280000F931F93CF93DF93082F10E0E801CC0F2B
:10329000DD1FCC0FDD1F9E0124523D4F7901CE0171
:1032A00088519D4F5C01FE01EC50FD4F6F01208164
:1032B000318142815381FC016081718182819381DE
:1032C0000E94ADADF7016083718382839383FE0119
:1032D000EB54FF4E85919591A591B4919E01205399
:1032E0003D4F7901F90180839183A283B383FE016D
:1032F000E755FF4E85919591A591B491C15FDE4F41
:1033000088839983AA83BB838091B90485FF39C0E0
:10331000F801EE5EFD4F60818BE29FE00E949B7A98
:10332000F501408151816281738184E19FE00E94B7
:10333000F07AF601408151816281738180E09FE0E3
:103340000E94F07AF70140815181628173818AEE97
:103350009EE00E94F07A488159816A817B8184EDE8
:103360009EE00E94F07A6AE080E99EE0DF91CF91D2
:103370001F910F91FF90EF90DF90CF90BF90AF9093
:103380003ECADF91CF911F910F91FF90EF90DF9098
:10339000CF90BF90AF900895CF92DF92EF920F93AE
:1033A0001F93CF93DF93CDB7DEB760970FB6F89436
:1033B000DEBF0FBECDBFE090CD02E9EAF4E080852C
:1033C0009185A285B385448155816681778100818D
:1033D0001181228133810D871E872F87388B498782
:1033E0005A876B877C878D839E83AF83B8871982CA
:1033F0001A821B821C82AE014B5F5F4FBE01675F6A
:103400007F4FCE010D960E94F266CE0101966C01AF
:103410000DE111E025EB34E0AE014B5F5F4FBE01E3
:10342000675F7F4F0C960E94837460960FB6F89486
:10343000DEBF0FBECDBFDF91CF911F910F91EF90F7
:10344000DF90CF9008952F923F924F925F926F92AC
:103450007F928F929F92AF92BF92CF92DF92EF9224
:10346000FF920F931F93CF93DF93CDB7DEB7609793
:103470000FB6F894DEBF0FBECDBF69837A838B830E
:103480009C832D833E834F83588727013801160183
:1034900080911D0190911E01A0911F01B09120010A
:1034A00089879A87AB87BC878091B90485FF39C02B
:1034B0002091E4023091E5024091E6025091E7024A
:1034C000C801B7010E94ADAD5B016C012091E00223
:1034D0003091E1024091E2025091E3026D817E81E0
:1034E0008F8198850E94ADAD6D877E878F87988B81
:1034F0002091DC023091DD024091DE025091DF022A
:1035000069817A818B819C810E94ADAD9B01AC0168
:10351000ED84FE840F85188960E070E08CEB9EE0FE
:1035200063DBD1018D909D90AD90BC9020E030E0A8
:10353000A901C501B4010E9424AE811106C0E9ECC5
:10354000F0E185909590A590B490A30192016091CF
:10355000B1047091B2048091B3049091B4040E94BC
:1035600024AE87FF11C080921D0190921E01A0928F
:103570001F01B09220014092B1045092B2046092B7
:10358000B3047092B40408DFF101C080D180E280FE
:10359000F38020E030E0A901C701B6010E9424AE0B
:1035A000811108C0C0900501D0900601E09007018C
:1035B000F0900801C0921D01D0921E01E0921F01FF
:1035C000F092200189819A81AB81BC818093A9040A
:1035D0009093AA04A093AB04B093AC048D819E8118
:1035E000AF81B8858093AD049093AE04A093AF04EF
:1035F000B093B004D1DEA30192016091B104709147
:10360000B2048091B3049091B4040E94C6AF18161E
:103610008CF480921D0190921E01A0921F01B09225
:1036200020014092B1045092B2046092B3047092AF
:10363000B404B2DE0E94736889859A85AB85BC8527
:1036400080931D0190931E01A0931F01B093200150
:103650008091B90485FF0EC0E3EAFEE064917F012A
:103660009FEFE91AF90A662329F080E99EE0C7D89E
:10367000F701F4CF60960FB6F894DEBF0FBECDBF52
:10368000DF91CF911F910F91FF90EF90DF90CF903E
:10369000BF90AF909F908F907F906F905F904F9072
:1036A0003F902F900895CF92DF92EF92FF920F9369
:1036B0001F936B01FC01E080F18002811381E9EA34
:1036C000F4E0248135814681578160817181828156
:1036D0009381B9DE1F910F91FF90EF90DF90CF9013
:1036E0000895CF92DF92EF92FF920F931F936A019A
:1036F000E090B104F090B2040091B3041091B404CE
:10370000FB012081318142815381FC016081718103
:103710008281938198DE1F910F91FF90EF90DF904F
:10372000CF9008958091B90485FF07C049EA54E01D
:103730006FE77EE08BE69EE0D8DA80911D019091E4
:103740001E01A0911F01B091200180930603909368
:103750000703A0930803B093090380911B01909184
:103760001C01909305038093040384E690E09093FA
:103770001C0180931B0108958091B90485FF07C047
:1037800049EA54E062E47EE08EE29EE0AEDA8091A7
:10379000060390910703A0910803B0910903809359
:1037A0001D0190931E01A0931F01B09320018091F1
:1037B00004039091050390931C0180931B010895CD
:1037C000EF92FF920F931F93CF93DF93882329F0FB
:1037D000D0919804D095D17001C0D0E0662341F01B
:1037E0001091980411FB882780F911E0182701C077
:1037F00010E0442341F0C0919804C2FB882780F96F
:10380000C1E0C82701C0C0E0D11105C0111103C03B
:10381000CC2309F45DC0EBE4F8E164917F018FEF04
:10382000E81AF80A662331F080E99EE00E94FF134F
:10383000F701F3CFE8E2FEE064917F018FEFE81A31
:10384000F80A662331F080E99EE00E94FF13F70139
:10385000F3CFDD2379F0E6E2FEE064917F018FEFA4
:10386000E81AF80A662331F080E99EE00E94FF130F
:10387000F701F3CF112371F0E4E2FEE064918F01D0
:103880000F5F1F4F662331F080E99EE00E94FF1317
:10389000F801F4CFC11103C0EAE1FEE00DC0E2E29D
:1038A000FEE06491EF0121966623B1F380E99EE08A
:1038B0000E94FF13FE01F5CF6491EF01219666236C
:1038C00031F080E99EE00E94FF13FE01F5CFC1E0D8
:1038D0008C2FDF91CF911F910F91FF90EF90089562
:1038E0008F929F92AF92BF92CF92DF92EF92FF9210
:1038F000CF93DF93CDB7DEB728970FB6F894DEBF2E
:103900000FBECDBF6B017C018091B90485FF10C053
:10391000B701A60186ED9DE00E94F07A69E280E998
:103920009EE00E94FF136AE080E99EE00E94FF1380
:10393000CD82DE82EF82F8868090BC029090BD023C
:10394000A090BE02B090BF0220E030E0A901C50106
:10395000B4010E9424AE87FF0AC0A5019401C701EB
:10396000B6010E94ACAD6D837E838F83988720E083
:1039700030E04EE753E46D817E818F8198850E940F
:10398000C6AF181644F480E090E0AEE7B3E48D8350
:103990009E83AF83B8872091B1043091B2044091E7
:1039A000B3045091B4046D817E818F8198850E940B
:1039B000C6AF181654F419821A821B821C82BE01EB
:1039C0006F5F7F4FCE0105966EDE28960FB6F89496
:1039D000DEBF0FBECDBFDF91CF91FF90EF90DF90A4
:1039E000CF90BF90AF909F908F900895BF92CF924D
:1039F000DF92EF92FF920F931F93CF93DF9300D04C
:103A000000D0CDB7DEB7B82E8091B90485FF12C0C3
:103A100049EA54E063E07EE08FEE9DE066D96B2DCD
:103A200070E086EE9DE00E94B37A6AE080E99EE055
:103A30000E94FF138091C5048B1551F1BB2029F022
:103A400060E070E080EA90E44BDF6091A90470913F
:103A5000AA048091AB049091AC042091AD04309104
:103A6000AE044091AF045091B00419821A821B82B7
:103A70001C82E090B104F090B2040091B304109164
:103A8000B404FE0131966F01DEDC8B2D0E94B95B20
:103A900080E00F900F900F900F90DF91CF911F91CA
:103AA0000F91FF90EF90DF90CF90BF9008954F92CD
:103AB0005F926F927F928F929F92AF92BF92CF92BE
:103AC000DF92EF92FF920F931F93CF93C82F8091B5
:103AD000B904CC2ED12C85FF12C0F601EE5EFD4F4D
:103AE00060818BE89AE00E949B7A69E280E99EE01F
:103AF0000E94FF136AE080E99EE00E94FF13F60136
:103B0000EE57FF4EB490C23021F481E06FDF811197
:103B1000D7C18091B90485FF0FC0EDE7FAE0649149
:103B20007F018FEFE81AF80A662331F080E99EE002
:103B30000E94FF13F701F3CF7601EE0CFF1CEE0C91
:103B4000FF1CF701EF56FF4E45905590659074901D
:103B50006B2DBB0C770B880B990B0E94C3AE4B01EE
:103B60005C0120E030E040EC5FE3C301B2010E9461
:103B7000FAAFA50194010E94FAAFAB01BC0100E0CD
:103B800010E098018C2F2CD9C23041F0F701EB578F
:103B9000FF4E259135914591549104C020E030E0CD
:103BA00040E450E4C501B4010E94FAAF4B015C014E
:103BB00020E030E0A9010E9424AE882309F483C0EC
:103BC0008091B90485FF0FC0E1E7FAE064913F01FD
:103BD0008FEF681A780A662331F080E99EE00E9430
:103BE000FF13F301F3CFC23021F000E010E09801A1
:103BF00004C000E010E020E830E4B501A4017058F2
:103C00008C2FEED88091B90485FF0FC0E3E6FAE06F
:103C100064913F018FEF681A780A662331F080E9DA
:103C20009EE00E94FF13F301F3CFC23009F43AC0C3
:103C3000F601E25EF54F649161111FC0EBE4F8E11B
:103C400064913F018FEF681A780A662331F080E9AA
:103C50009EE00E94FF13F301F3CFECEFF9E06491D3
:103C60003F018FEF681A780A662331F080E99EE001
:103C70000E94FF13F301F3CF6AE0F701EF53FF4E09
:103C8000459055906590749070E080E090E00E94BF
:103C9000C3AE9B01AC01C301B2010E9428AE2B014F
:103CA0003C0105C0412C512C612C80E4782EA501EB
:103CB0009401C501B4010E94ADADAB01BC019301FB
:103CC00082018C2F8DD88091B90485FF12C0F60136
:103CD000EE5EFD4F608180EB99E00E949B7A69E285
:103CE00080E99EE00E94FF136AE080E99EE00E9466
:103CF000FF1381E090E00C2E01C0880F0A94EAF7D0
:103D000090919704982B9093970490919804892B05
:103D100080939804F701EC50FD4F108211821282BB
:103D200013828C2FA7DAF701E356FF4E8591959108
:103D3000A591B491F701E755FB4F80839183A2834E
:103D4000B383C23009F03EC02091BC023091BD0265
:103D50004091BE025091BF026091B1047091B204D3
:103D60008091B3049091B4040E94ACAD6093B1040F
:103D70007093B2048093B3049093B4048091B90417
:103D800085FF20C0EFE6F9E064915F018FEFA81A8C
:103D9000B80A662331F080E99EE00E94FF13F50126
:103DA000F3CF4091BC025091BD026091BE02709170
:103DB000BF028BE599E00E94F07A6AE080E99EE01C
:103DC0000E94FF138091B90485FF30C0F601EE5EBA
:103DD000FD4FB0806B2D8CE499E00E949B7AF70137
:103DE000E851FD4F408151816281738187E499E000
:103DF0000E94F07A6AE080E99EE00E94FF1349EA9F
:103E000054E062E479E08EE299E00E9475166B2D31
:103E100085E199E00E949B7A69E280E99EE00E9438
:103E2000FF136AE080E99EE00E94FF130E9494164F
:103E3000D701A756BB4FF701E755FB4F4081518192
:103E4000628173814D935D936D937C931397809101
:103E5000B90485FF33C049EA54E063E47AE08FE2B5
:103E60009AE00E947516C23021F480E0BFDD811116
:103E700027C08091B90485FF23C0F601EE5EFD4F97
:103E8000608181E29AE00E949B7A69E280E99EE08B
:103E90000E94FF136AE080E99EE0CF911F910F918D
:103EA000FF90EF90DF90CF90BF90AF909F908F905A
:103EB0007F906F905F904F900C94FF13C230A9F2E7
:103EC000CF911F910F91FF90EF90DF90CF90BF9017
:103ED000AF909F908F907F906F905F904F900895DC
:103EE0008F929F92AF92BF92CF92DF92EF92FF920A
:103EF0000F931F93CF93DF9300D000D0CDB7DEB7E1
:103F000082E1882E82E0982E99E9C92E94E0D92E7C
:103F100029EAE22E24E0F22E3CEDA32E32E0B32E6D
:103F200000E010E0F40181914F010E9426158823E2
:103F300021F10E947D15F801E050FD4F20812111F3
:103F400004C02091CC02222341F0F701208131816D
:103F5000428153810E94ADAD0AC00330110539F092
:103F6000F50120813181428153810E94ACADF6017F
:103F700060837183828393830AC0F701808191817A
:103F8000A281B381F60180839183A283B3830F5F03
:103F90001F4FF4E0CF0ED11C84E0E80EF11CE4E0EA
:103FA000AE0EB11C0430110509F0BCCF86E40E94AE
:103FB00071158823C9F00E947D1520E030E0A90129
:103FC0000E94C6AF181684F40E947D1520E030E0F0
:103FD00040E752E40E9428AE60931D0170931E01D9
:103FE00080931F01909320018091B90483FD1AC032
:103FF0002091B5043091B6044091B7045091B804B3
:104000006091A5047091A6048091A7049091A804E2
:104010000E94ACAD69837A838B839C83CE01019629
:104020000E94E8770F900F900F900F90DF91CF9143
:104030001F910F91FF90EF90DF90CF90BF90AF90C6
:104040009F908F900895CF92DF92EF92FF920F93FF
:104050001F93CF93DF930FB6F894C090850ED09046
:10406000860EE090870EF090880E0FBE8091CB02F6
:10407000811174C080910401882309F46FC080917C
:10408000AB02882309F46AC04091A7025091A802AC
:104090006091A9027091AA0297018601041B150B79
:1040A000260B370B37FD6DC0833031F134F481308E
:1040B0000CF454C0EBE4F8E106C0843009F04EC0C3
:1040C000EBE4F8E133C06491EF012196662331F00F
:1040D00080E99EE00E94FF13FE01F5CFE4E0FCE0E2
:1040E0006491EF012196662309F438C080E99EE0CF
:1040F0000E94FF13FE01F4CFEBE4F8E16491EF01BD
:104100002196662331F080E99EE00E94FF13FE01B4
:10411000F5CFEDEEFBE06491EF0121966623F1F01F
:1041200080E99EE00E94FF13FE01F5CF6491EF014C
:104130002196662331F080E99EE00E94FF13FE0184
:10414000F5CFE5EDFBE06491EF012196662331F0B8
:1041500080E99EE00E94FF13FE01F5CF209104014B
:1041600030E0A8EEB3E00E9493ADC60ED71EE81E65
:10417000F91EC092A702D092A802E092A902F09282
:10418000AA02DF91CF911F910F91FF90EF90DF90E6
:10419000CF9008954F925F926F927F928F929F92ED
:1041A000AF92BF92CF92DF92EF92FF92CF93DF93C5
:1041B000E6ECFBE06491EF012196662331F080E9A3
:1041C0009EE00E94FF13FE01F5CFEBEBFBE0649154
:1041D000EF012196662331F080E99EE00E94FF13F3
:1041E000FE01F5CFE3EBFBE06491EF01219666233E
:1041F00031F080E99EE00E94FF13FE01F5CFE0EA76
:10420000FBE06491EF012196662331F080E99EE0A6
:104210000E94FF13FE01F5CF64E170E080E99BE0AE
:104220000E94B37A60E070E08CE89BE00E94B37A71
:104230004091BC025091BD026091BE027091BF02DC
:1042400088E89BE00E94F07AE0E8FBE06491EF01EF
:104250002196662331F080E99EE00E94FF13FE0163
:10426000F5CFE8E7FBE06491EF012196662331F09A
:1042700080E99EE00E94FF13FE01F5CFC090BC02D2
:10428000D090BD02E090BE02F090BF0220E030E08E
:10429000A901C701B6010E9424AE87FF10C0EFE656
:1042A000FBE06491EF012196611103C0EFE4FBE0B4
:1042B00029C080E99EE00E94FF13FE01F2CF20E0BA
:1042C00030E0A901C701B6010E94C6AF18166CF410
:1042D000E6E6FBE06491EF012196662339F380E97D
:1042E0009EE00E94FF13FE01F5CFE9E5FBE064913B
:1042F000EF0121966623D1F280E99EE00E94FF1330
:10430000FE01F5CF6491EF012196662331F080E93B
:104310009EE00E94FF13FE01F5CFEBE3FBE064910A
:10432000EF012196662331F080E99EE00E94FF13A1
:10433000FE01F5CFE4E3FBE06491EF0121966623F3
:1043400031F080E99EE00E94FF13FE01F5CF8091DD
:104350005D05882309F4A4C0E8E2FBE06491EF0165
:104360002196662331F080E99EE00E94FF13FE0152
:10437000F5CF80E00E945F682091A9043091AA04E3
:104380004091AB045091AC040E94ACAD2B013C01B8
:1043900081E00E945F682091AD043091AE044091AD
:1043A000AF045091B0040E94ACAD4B015C0182E0BF
:1043B0000E945F682091B1043091B2044091B3042F
:1043C0005091B4040E94ACAD6B017C01E7E1FBE0CD
:1043D0006491EF012196662331F080E99EE00E940E
:1043E000FF13FE01F5CF20E030E0A901C301B201C7
:1043F0000E94C6AF18162CF46BE280E99EE00E9482
:10440000FF1322E030E0B301A20180E99EE00E94A8
:10441000FD13E4E1FBE06491EF012196662331F0A6
:1044200080E99EE00E94FF13FE01F5CF20E030E01E
:10443000A901C501B4010E94C6AF18162CF46BE2A5
:1044400080E99EE00E94FF1322E030E0B501A40164
:1044500080E99EE00E94FD13E1E1FBE06491EF0141
:104460002196662331F080E99EE00E94FF13FE0151
:10447000F5CF20E030E0A901C701B6010E94C6AF28
:1044800018162CF46BE280E99EE00E94FF1322E0F4
:1044900030E0B701A60180E99EE00E94FD130DC047
:1044A000E4E0FBE06491EF012196662331F080E9BE
:1044B0009EE00E94FF13FE01F5CF6AE080E99EE0D6
:1044C000DF91CF91FF90EF90DF90CF90BF90AF90B2
:1044D0009F908F907F906F905F904F900C94FF1300
:1044E0000F931F93CF93DF9300D000D0CDB7DEB7EB
:1044F0008091970483708330E9F0EBE4F8E16491F4
:104500008F010F5F1F4F662331F080E99EE00E940C
:10451000FF13F801F4CFE6E0F9E064918F010F5F3B
:104520001F4F662309F46AC080E99EE00E94FF13D2
:10453000F801F3CF8091B90485FF0EC0E3EFF8E0F6
:1045400064918F010F5F1F4F662331F080E99EE079
:104550000E94FF13F801F4CF0E94941680E090E0CF
:10456000A4E3B3E480939D0490939E04A0939F04DE
:10457000B093A0048091B1049091B204A091B304CF
:10458000B091B4048093A1049093A204A093A304D7
:10459000B093A4041092990410929A0410929B0470
:1045A00010929C048091B90485FF08C049E954E049
:1045B00061EE78E082ED98E00E94751619821A8209
:1045C0001B821C82AE014F5F5F4F6DE974E089E989
:1045D00094E087D882E06BDA8091B90485FF0EC041
:1045E000EFEBF8E064918F010F5F1F4F662331F00E
:1045F00080E99EE00E94FF13F801F4CF0F900F9026
:104600000F900F90DF91CF911F910F9108950F930D
:104610001F93CF93DF93CDB7DEB769970FB6F894AA
:10462000DEBF0FBECDBF0E94508A6E8B7F8B888FFE
:10463000998FBE016F5F7F4FCE0146960E94661430
:10464000EBE4F8E164918F010F5F1F4F662331F0B7
:1046500080E99EE00E94FF13F801F4CFBE016F5F76
:104660007F4F83EF96E00E94737A6AE080E99EE0D4
:104670000E94FF1369960FB6F894DEBF0FBECDBF40
:10468000DF91CF911F910F910895CF93DF93E1E5D3
:10469000F8E16491EF012196662331F080E99EE014
:1046A0000E94FF13FE01F5CFEBE7F6E06491EF0106
:1046B0002196662331F080E99EE00E94FF13FE01FF
:1046C000F5CFDF91CF91089588E690E00E94F5182C
:1046D000811122C08091B90483FD1EC083E50E9430
:1046E00071158823B9F00E947D150E9490AE7093D9
:1046F000BE0D6093BD0D80E00E94F48F0E947D1579
:1047000020E030E04AEA52E40E9424AE181614F089
:104710000E942B7A0C9486770895CF93DF9389E6D5
:1047200090E00E94F518811116C0E2E2F6E0649173
:10473000EF012196662331F080E99EE00E94FF138D
:10474000FE01F5CF0E947E956AE080E99EE0DF9150
:10475000CF910C94FF13DF91CF910895CF92DF9208
:10476000EF92FF9283E50E947115882321F10E9448
:10477000D4158D3308F08CE38093330D0FB6F89485
:10478000C090850ED090860EE090870EF090880E37
:104790000FBE282F30E0A8EEB3E00E9493ADC60E06
:1047A000D71EE81EF91EC0922F0DD092300DE09258
:1047B000310DF092320DFF90EF90DF90CF90089581
:1047C00080E50E947115811106C083E50E94711574
:1047D000882359F005C00E94D41581110CC0F5CF73
:1047E0000E94B4156F3F710510F06FEF70E0709389
:1047F000CF026093CE0208958091B90483FD14C066
:1048000083E50E947115882379F00E947D150E942E
:1048100090AE6639710514F066E970E07093B60DDC
:104820006093B50D0C9446900895DF92EF92FF923D
:104830000F931F93CF93DF9383E50E942615882360
:1048400059F083E50E947115882319F00E94D41550
:1048500001C080E08093B904EBE4F8E16491EF01DA
:104860002196662331F080E99EE00E94FF13FE014D
:10487000F5CFE4E7F6E06491EF012196662331F08D
:1048800080E99EE00E94FF13FE01F5CF8091B904FC
:104890008823A9F188E6E82E86E0F82E00E010E0F3
:1048A00020E08091B90490E0002E02C09595879594
:1048B0000A94E2F780FF1AC0DD24D394D20E22239B
:1048C00029F06CE280E99EE00E94FF13F7018591D8
:1048D0009491FC016491EC012196662331F080E90A
:1048E0009EE00E94FF13CE01F4CF2D2D0F5F1F4FCE
:1048F000F2E0EF0EF11C0630110599F60DC0E4E66A
:10490000F6E06491EF012196662331F080E99EE0A4
:104910000E94FF13FE01F5CF6AE080E99EE0DF917F
:10492000CF911F910F91FF90EF90DF900C94FF13A8
:10493000CF93DF9383E50E947115882351F00E9485
:10494000D4158D3308F08CE380930401DF91CF916F
:104950000895EBE4F8E16491EF012196662331F0CC
:1049600080E99EE00E94FF13FE01F5CF4091040113
:1049700050E060E070E085E296E00E94117B6AE022
:1049800080E99EE0DF91CF910C94FF134F925F92EC
:104990006F927F92AF92BF92CF92DF92EF92FF928F
:1049A0000F931F93CF9382E1A82E82E0B82E0AE9DD
:1049B00015E0C0E0F50181915F010E942615882372
:1049C00009F46DC0C33009F063C00E947D156B010E
:1049D0007C0120E030E040EA51E40E9424AE87FFF1
:1049E0004EC0A70196016091A6057091A705809120
:1049F000A8059091A9050E9428AE2B013C019B01BE
:104A0000AC0160917205709173058091740590916D
:104A100075050E94FAAF60937205709373058093D9
:104A2000740590937505A30192016091B60570918C
:104A3000B7058091B8059091B9050E94FAAF6093CF
:104A4000B6057093B7058093B8059093B90560914A
:104A5000CA057091CB058091CC059091CD050E943F
:104A6000C1AEA30192010E94FAAF0E9495AE60937D
:104A7000CA057093CB058093CC059093CD05C09269
:104A8000A605D092A705E092A805F092A90507C057
:104A90000E947D15F8016083718382839383CF5FC9
:104AA0000C5F1F4FC43009F085CFCF911F910F913C
:104AB000FF90EF90DF90CF90BF90AF907F906F907E
:104AC0005F904F900C9462770F931F93CF93DF9377
:104AD000C9EAD4E00CED12E0F80120813181428175
:104AE0005381688179818A819B810E94ADADAB0140
:104AF000BC0186EB98E00E94F07AF80124813581B0
:104B0000468157816C817D818E819F810E94ADADF0
:104B1000AB01BC0182EB98E00E94F07AF80120859D
:104B2000318542855385688579858A859B850E9474
:104B3000ADADAB01BC018EEA98E00E94F07A4C85E5
:104B40005D856E857F858AEA98E00E94F07ADF9124
:104B5000CF911F910F910C9411884F925F926F9299
:104B60007F928F929F92AF92BF92CF92DF92EF92FD
:104B7000FF920F931F93CF93DF9382E1C82E82E0C1
:104B8000D82E94EFE92E92E0F92E00E010E0C0E07C
:104B9000D0E0F60181916F010E947115882309F41C
:104BA0004DC00E947D154B015C01C33059F0F801E6
:104BB000E452FD4F20813181428153810E94ACAD8E
:104BC0004B015C01F801E755FB4F208131814281A7
:104BD0005381C501B4010E94ACAD2B013C012DEB0A
:104BE00037E346E855EB0E94C6AF87FD0AC02DEBC0
:104BF00037E346E855E3C301B2010E9424AE18161C
:104C0000ECF4C33051F48092B5049092B604A092B3
:104C1000B704B092B804D1E011C0A3019201F7012A
:104C200060817181828193810E94ADADF7016083C3
:104C30007183828393838C2F0E943A19CF5FF4E0B3
:104C4000EF0EF11C0C5F1F4FC43009F0A2CFD11141
:104C50000E941C18DF91CF911F910F91FF90EF9050
:104C6000DF90CF90BF90AF909F908F907F906F908C
:104C70005F904F9029CFCF93DF93E4E5F5E0649107
:104C8000EF012196662331F080E99EE00E94FF1338
:104C9000FE01F5CF60E084E495E00E94151461E028
:104CA0008DE395E00E94151461E082E395E00E9497
:104CB000151461E082E295E00E94151460E089E13C
:104CC00095E00E94151461E08FE095E00E941514B4
:104CD00061E085E095E00E94151461E08DEF94E0BD
:104CE0000E94151461E08FEE94E00E94151460E0BC
:104CF00081EE94E00E94151460E082ED94E00E9441
:104D0000151460E084EC94E00E94151460E08EEAD3
:104D100094E00E94151460E08DE994E00E9415145F
:104D200060E088E894E00E94151461E085E794E073
:104D3000DF91CF910C941514FF920F931F93CF9393
:104D4000DF93C091EE04D091EF0483E0F12C40E0BA
:104D50008150D1F09881292F2B7F2134C9F72981E7
:104D60002133B1F7913421F0953421F441E002C0B0
:104D7000FF24F3949E012E5F3F4FE9012F5F3F4FC9
:104D800098819032D1F3E4CF442371F0EBE4F8E161
:104D900064918F010F5F1F4F662331F080E99EE021
:104DA0000E94FF13F801F4CFFF2071F0EAE6F4E06F
:104DB00064918F010F5F1F4F662331F080E99EE001
:104DC0000E94FF13F801F4CFBE0180E99EE00E942B
:104DD000EE136AE080E99EE0DF91CF911F910F9181
:104DE000FF900C94FF13CF9388EC90E00E94F5188D
:104DF000811140C084E40E9426158823C1F10E94DD
:104E00007D15C1E020E030E0A9010E9424AE8111AF
:104E100001C0C0E0C093F204CC2349F10E947D158B
:104E2000E091C00224E0E29FF0011124EE59FA4F14
:104E3000608371838283938320E030E0A9016091D5
:104E400062057091630580916405909165050E94EB
:104E500024AE81110CC080E090E0A0EEBFE380930F
:104E6000620590936305A0936405B0936505CF91A7
:104E70000C948D66CF910895CF9383E50E947115B0
:104E80008823A1F00E947D156093820570938305AD
:104E9000809384059093850560937A0570937B05D4
:104EA00080937C0590937D05C0E001C0C1E080E562
:104EB0000E947115882359F00E947D156093820528
:104EC000709383058093840590938505C0E082E507
:104ED0000E947115882359F00E947D1560937E050C
:104EE00070937F058093800590938105C0E084E5F1
:104EF0000E947115882359F00E947D1560937A05F0
:104F000070937B0580937C0590937D052CC0CC230A
:104F100051F1409182055091830560918405709113
:104F200085058AE594E00E94F07A40917E055091D3
:104F30007F05609180057091810587E594E00E946E
:104F4000F07A40917A0550917B0560917C057091D3
:104F50007D0584E594E00E94F07A6AE080E99EE0B5
:104F6000CF910C94FF13CF91089581E50E942615EF
:104F7000882351F00E94C4156093BA057093BB0555
:104F80008093BC059093BD0583E50E942615882378
:104F900051F00E947D15609386057093870580937C
:104FA00088059093890584E50E942615882351F091
:104FB0000E947D1560937605709377058093780540
:104FC0009093790588E50E942615882351F00E9468
:104FD0007D156093660570936705809368059093CF
:104FE000690589E50E942615882351F00E947D15E8
:104FF00060936A0570936B0580936C0590936D05C3
:105000008AE50E942615882351F00E947D15609341
:105010006E0570936F05809370059093710585E41C
:105020000E942615882351F00E947D156093720519
:105030007093730580937405909375050895EF92AE
:10504000FF920F931F93CF9382E1E82E82E0F82E18
:1050500008EE12E0C0E0F70181917F010E94261561
:10506000882351F00E947D15F8016083718382834B
:1050700093838C2F0E943A19CF5F0C5F1F4FC33070
:1050800051F7CF911F910F91FF90EF901DCDCF93CE
:10509000DF93EBE4F8E16491EF012196662331F0B0
:1050A00080E99EE00E94FF13FE01F5CF83E50E9498
:1050B0002615882321F00E94E51580930E01E6E273
:1050C000F4E06491EF012196662331F080E99EE0DF
:1050D0000E94FF13FE01F5CF80910E01811103C0E4
:1050E000EEE1F4E002C0E2E2F4E06491EF01219627
:1050F000662331F080E99EE00E94FF13FE01F5CFA8
:10510000E6E1F4E06491EF012196662331F080E955
:105110009EE00E94FF13FE01F5CF2091DC0230914A
:10512000DD024091DE025091DF026091D002709169
:10513000D1028091D2029091D3020E94ADADAB0119
:10514000BC0184E194E00E94F07A2091E002309169
:10515000E1024091E2025091E3026091D402709129
:10516000D5028091D6029091D7020E94ADADAB01DD
:10517000BC0181E194E00E94F07A2091E402309138
:10518000E5024091E6025091E7026091D8027091E9
:10519000D9028091DA029091DB020E94ADADAB01A1
:1051A000BC018EE094E00E94F07AE6E0F4E06491C5
:1051B000EF012196662331F080E99EE00E94FF1303
:1051C000FE01F5CF2091DC023091DD024091DE023C
:1051D0005091DF0260910F017091100180911101D7
:1051E000909112010E94ADADAB01BC0184E094E04E
:1051F0000E94F07A2091E0023091E1024091E202B7
:105200005091E30260911301709114018091150196
:10521000909116010E94ADADAB01BC0181E094E01C
:105220000E94F07A2091E4023091E5024091E6027A
:105230005091E70260911701709118018091190156
:1052400090911A010E94ADADAB01BC018EEF93E0CD
:105250000E94F07A6AE080E99EE0DF91CF910C94A1
:10526000FF130F931F93CF93DF938DED90E00E9478
:10527000F518811170C083E50E9471158823B9F17A
:10528000C091C002D0E00E94B415CC0FDD1FCE5CEF
:10529000DE4F798368838091C00290E0EC01CC0FEF
:1052A000DD1FCC0FDD1F8E01025D1E4F880F991F81
:1052B000FC01EE5CFE4F60817181072E000C880BB3
:1052C000990B0E94C3AE2AE037ED43E25CE30E94F3
:1052D000FAAFC25ADA4F288139814A815B810E9434
:1052E000FAAFF801608371838283938334C0EBE467
:1052F000F8E16491EF012196662331F080E99EE0A8
:105300000E94FF13FE01F5CF65E480E99EE00E9454
:10531000FF136091C002605D80E99EE00E94FF1370
:10532000E091C002F0E0EE0FFF1FEE5CFE4F6081E7
:10533000718186EF93E00E94B37A65E280E99EE096
:105340000E94FF136AE080E99EE0DF91CF911F91F8
:105350000F910C94FF13DF91CF911F910F9108953E
:10536000CF92DF92EF92FF92CF93DF938AE50E9474
:105370007115811106C083E50E947115882309F417
:1053800081C00E947D1520E030E040E050EC0E949A
:1053900024AE87FD15C00E947D1520E030E040E07E
:1053A00050E40E94C6AF18162CF00E947D156B01C8
:1053B0007C010BC0C12CD12CE12C90E4F92E05C04E
:1053C000C12CD12CE12C80ECF82E2091A20530913B
:1053D000A3054091A4055091A5058091970482FFF3
:1053E00010C0C091780DD091790DC701B6010E940F
:1053F000FAAF0E9490AEC60FD71FD093790DC0931D
:10540000780D80E50E942615882321F00E94E5157D
:105410008823C1F1A70196016091BC027091BD0281
:105420008091BE029091BF020E94ADAD6093BC021C
:105430007093BD028093BE029093BF02EBE4F8E14B
:105440006491EF012196662331F080E99EE00E948D
:10545000FF13FE01F5CF4091BC025091BD02609157
:10546000BE027091BF0285EE93E00E94F07A6AE07E
:1054700080E99EE0DF91CF91FF90EF90DF90CF9099
:105480000C94FF13DF91CF91FF90EF90DF90CF90BE
:105490000895CF93DF9385E40E947115811110C0A8
:1054A00080E50E942615882391F00E947D15609367
:1054B000820D7093830D8093840D9093850D07C0AA
:1054C0000E94D415882361F3E1E5F8E172C089E414
:1054D0000E942615882381F00E947D152CEA35EC68
:1054E00047E25EE30E94FAAF60937E0D70937F0DFA
:1054F0008093800D9093810D84E40E94261588236B
:1055000081F00E947D152CEA35EC47E25EE30E94B3
:1055100028AE60937A0D70937B0D80937C0D9093F1
:105520007D0DEBE4F8E16491EF012196662331F003
:1055300080E99EE00E94FF13FE01F5CF4091820DAD
:105540005091830D6091840D7091850D81EE93E0F3
:105550000E94F07A2CEA35EC47E25EE360917E0D22
:1055600070917F0D8091800D9091810D0E9428AEE9
:10557000AB01BC018DED93E00E94F07A2CEA35EC92
:1055800047E25EE360917A0D70917B0D80917C0D16
:1055900090917D0D0E94FAAFAB01BC0189ED93E0C3
:1055A0000E94F07A6AE080E99EE0DF91CF910C944E
:1055B000FF136491EF012196662331F080E99EE0AC
:1055C0000E94FF13FE01F5CFE7ECF3E06491EF01D9
:1055D0002196662331F080E99EE00E94FF13FE01D0
:1055E000F5CFDF91CF910895CF93DF9380E50E94AF
:1055F0002615882351F00E947D156093A80D7093A5
:10560000A90D8093AA0D9093AB0D89E40E942615F5
:10561000882381F00E947D152CEA35EC47E25EE399
:105620000E94FAAF6093A40D7093A50D8093A60D10
:105630009093A70D84E40E942615882381F00E9490
:105640007D152CEA35EC47E25EE30E9428AE6093BC
:10565000A00D7093A10D8093A20D9093A30DEBE488
:10566000F8E16491EF012196662331F080E99EE034
:105670000E94FF13FE01F5CF4091A80D5091A90D96
:105680006091AA0D7091AB0D8BE993E00E94F07AC6
:105690002CEA35EC47E25EE36091A40D7091A50D14
:1056A0008091A60D9091A70D0E9428AEAB01BC0180
:1056B00087E993E00E94F07A2CEA35EC47E25EE35A
:1056C0006091A00D7091A10D8091A20D9091A30DFC
:1056D0000E94FAAFAB01BC0183E993E00E94F07A2B
:1056E0006AE080E99EE0DF91CF910C94FF13CF93A5
:1056F000DF9383E50E942615C82F882371F00E944E
:105700007D150E9490AE709351016093500121E08D
:10571000672B09F020E020936D0D80E50E9426158F
:10572000882359F02091500130915101232B11F021
:105730000E94E51580936D0D31C0C1112FC0EBE4BF
:10574000F8E16491EF012196662331F080E99EE053
:105750000E94FF13FE01F5CF80916D0D811103C0F2
:105760006AED71E002C067ED71E084EB93E00E94A6
:10577000737A609150017091510183EA93E00E9425
:10578000B37AEFE9F3E06491EF012196662331F0FB
:1057900080E99EE00E94FF13FE01F5CFDF91CF91DB
:1057A00008958F929F92AF92BF92EF92FF920F93C4
:1057B0001F93CF93DF9300D000D0CDB7DEB785E441
:1057C0000E947115882321F00E94B4158B0102C03C
:1057D00000E010E083E40E947115882321F00E940C
:1057E000B415F62E02C025E0F22E85E50E94711553
:1057F000882321F00E94E515E82E04C085E50E946B
:105800002615E82E17FD07C0812C912C96E1A92EB4
:1058100093E4B92E06C0812C912C8CE8A82E82E44A
:10582000B82E83E50E947115882321F00E947D1512
:105830004B015C01C501B4010E9490AE0115110538
:1058400011F41092C002072E000C880B990B0E94D5
:10585000C3AE69837A838B839C832E2D4F2D602F5B
:10586000CE0101960E9409960F900F900F900F9015
:10587000DF91CF911F910F91FF90EF90BF90AF906C
:105880009F908F9008952F923F924F925F926F92C8
:105890007F928F929F92AF92BF92CF92DF92EF92C0
:1058A000FF920F931F93CF93DF93CDB7DEB72F9760
:1058B0000FB6F894DEBF0FBECDBF41E061E081E0DE
:1058C0000E94E01B8111BAC09DE9892E90E1992EBA
:1058D00089EA94E09E878D87FE0131965F0102E898
:1058E00010E11F01F3E0F00FFF87F401659175915E
:1058F00085919491ED85FE85C190D190E190F190D4
:10590000FE87ED87A70196010E94ACAD2B013C01FB
:1059100020E030E040EA51EC0E94C6AF87FD10C0A5
:1059200020E030E040EA51E4C301B2010E9424AE1D
:10593000181634F0F10140825182628273820DC0E8
:10594000F80184911816B4F7F7FAF094F7F8F09488
:10595000F101C082D182E282F382F101C190D19043
:10596000E190F1901F0120E030E040EA51ECC701E6
:10597000B6010E94C6AF87FF03C0E1E5F8E10BC0A6
:1059800020E030E040EA51E4C701B6010E9424AEB5
:105990001816E4F4F2CF64918F010F5F1F4F662356
:1059A00031F080E99EE00E94FF13F801F4CFE6E3B6
:1059B000F4E064918F010F5F1F4F662309F43EC02E
:1059C00080E99EE00E94FF13F801F3CFF4E08F0E10
:1059D000911C0F5F1F4F8F85801387CF88EEE82EB5
:1059E00082E0F82E10E0F50181919191A191B191A1
:1059F0005F01F70181939193A193B1937F01812F6F
:105A00000E943A191F5F133071F72F960FB6F89462
:105A1000DEBF0FBECDBFDF91CF911F910F91FF90E1
:105A2000EF90DF90CF90BF90AF909F908F907F903E
:105A30006F905F904F903F902F9046C82F960FB673
:105A4000F894DEBF0FBECDBFDF91CF911F910F91B4
:105A5000FF90EF90DF90CF90BF90AF909F908F908E
:105A60007F906F905F904F903F902F900895CF93CD
:105A7000DF930E941F5A8823D1F0EBE4F8E1649190
:105A8000EF012196662331F080E99EE00E94FF132A
:105A9000FE01F5CFEFE2F3E06491EF01219666237A
:105AA00031F080E99EE00E94FF13FE01F5CFDF9107
:105AB000CF910895CF92DF92EF92FF92CF93DF9331
:105AC0008AE50E947115882309F43AC00E947D1569
:105AD0006B017C0120E030E040EA50EC0E94C6AF50
